:020000040800F2
:1000000000200020910C0008D50C0008D50C000839
:1000100000000000000000000000000000000000E0
:10002000000000000000000000000000D50C0008E7
:100030000000000000000000D50C0008D50C0008EE
:10004000D50C0008D50C0008D50C0008D50C00080C
:10005000D50C0008D50C0008D50C0008D50C0008FC
:10006000D50C0008D50C0008D50C0008D50C0008EC
:10007000D50C0008D50C0008D50C00083D0C000874
:10008000590C0008750C000800000000D50C000891
:10009000D50C0008D50C0008D50C0008D50C0008BC
:1000A000D50C0008D50C0008D50C0008D50C0008AC
:1000B000D50C000800000000D50C0008000000006E
:1000C0005FF808F180B500AF1A4B1A4A1268012197
:1000D0000A431A60174B174A5168174A0A405A6078
:1000E000144B144A1168154A0A401A60114B114A00
:1000F0001168134A0A401A600E4B0E4A5168114AA1
:100100000A405A600B4B0B4AD26A0F218A43DA62CB
:10011000084B084A116B0C4A0A401A63054B054A02
:10012000526B01218A435A63024B00229A60BD46FA
:1001300080BDC046001002400CB8FFF8FFFFF6FE7D
:10014000FFFFFBFFFFFFC0FFACFEFFFF80B582B0EB
:1001500000AF021CFB1D1A70044B00221A70034BE7
:10016000FA1D12781A70BD4602B080BD021002401E
:1001700090B583B000AF00233B60FB1D00221A70D6
:10018000BB1D00221A70BC1D112000F097F9031C42
:1001900023703B6801333B603A68A023DB009A423E
:1001A00003D0BB1D1B78002BEDD0112000F086F989
:1001B000031C002B03D0FB1D01221A7002E0FB1D63
:1001C00000221A70FB1D1B78181CBD4603B090BDA1
:1001D00080B582B000AF021CFB1D1A70FB1D1B789E
:1001E000002B06D0074B074A126801210A431A6008
:1001F00005E0044B034A126801218A431A60BD4698
:1002000002B080BD0010024080B582B000AF7860BF
:100210003960084B074A5168074A0A405A60054B43
:10022000044A516878683A6802430A435A60BD46F6
:1002300002B080BD00100240FFFFC2FF80B582B057
:1002400000AF021CFB1D1A70FB1D1B78002B07D092
:10025000084B084A1268802149040A431A6005E0E5
:10026000044B044A1168044A0A401A60BD4602B0B1
:1002700080BDC04600100240FFFFFFFE80B584B085
:1002800000AF78600023FB60084BDB6AFB60FB6813
:100290000F229343FB60FA687B681343FB60034BB8
:1002A000FA68DA62BD4604B080BDC0460010024064
:1002B00080B582B000AF021CFB1D1A70034BFA1D03
:1002C00012781A70BD4602B080BDC04607100240C9
:1002D00080B584B000AF78600023FB60084B5B689A
:1002E000FB60FB6803229343FB60FA687B6813435F
:1002F000FB60034BFA685A60BD4604B080BDC0463F
:100300000010024080B500AF044B5B68DAB20C23EA
:100310001340DBB2181CBD4680BDC0460010024031
:1003200080B584B000AF78600023FB60084B5B6849
:10033000FB60FB68F0229343FB60FA687B68134321
:10034000FB60034BFA685A60BD4604B080BDC046EE
:100350000010024080B584B000AF78600023FB60DD
:10036000084B5B68FB60FA68074B1340FB60FA6858
:100370007B681343FB60034BFA685A60BD4604B0C8
:1003800080BDC04600100240FFF8FFFF80B582B07C
:1003900000AF78600E4B0E4A51680E4A0A405A6010
:1003A0000B4B0B4A51687A681204120C0A435A60CC
:1003B000074B074A116B084A0A401A63044B044A68
:1003C000116B7A68120C0A431A63BD4602B080BDF5
:1003D00000100240FFBFFFFFFFFEFFFF80B582B0AD
:1003E00000AF7860074B074A126B10218A431A63EB
:1003F000044B044A116B7A680A431A63BD4602B083
:1004000080BDC0460010024080B582B000AF786069
:100410000A1CFB1C1A70FB1C1B78002B06D0084B17
:10042000074A51697A680A435A6106E0044B044A54
:1004300052697968C9430A405A61BD4602B080BD1D
:100440000010024080B582B000AF78600A1CFB1C2F
:100450001A70FB1C1B78002B06D0084B074A9169C9
:100460007A680A439A6106E0044B044A9269796803
:10047000C9430A409A61BD4602B080BD00100240E7
:1004800080B582B000AF78600A1CFB1C1A70FB1CA0
:100490001B78002B06D0084B074AD1697A680A43BB
:1004A000DA6106E0044B044AD2697968C9430A401C
:1004B000DA61BD4602B080BD0010024080B586B052
:1004C00000AF021CFB1D1A700023FB6000237B6140
:1004D0003B1C133300221A70FB1D1B785B09DBB237
:1004E000FB60FB68002B03D1174B1B687B6110E09E
:1004F000FB68012B03D1144B1B6A7B6109E0FB688D
:10050000022B03D1104B5B6A7B6102E00E4B5B6BED
:100510007B61FB1D1A781F231340FB60FB687A691F
:10052000DA400123134004D03B1C133301221A701C
:1005300003E03B1C133300221A703B1C13331B785F
:10054000181CBD4606B080BD0010024080B500AF4B
:10055000012000F025FE012000F008FEFFF7B2FDAB
:100560000120FFF7F3FDFFF703FE031C012B30D141
:100570000020FFF7D5FE0020FFF7ECFE164B181CFD
:10058000FFF704FF1020FFF729FF0020FFF776FE9A
:1005900080235A0280235B03101C191CFFF734FED2
:1005A0000120FFF74BFEC0461920FFF787FF031C11
:1005B000002BF9D00220FFF78BFEC046FFF7A2FE0A
:1005C000031C082BFAD10020FFF702FE0120FFF7E1
:1005D0006FFEBD4680BDC0460040000180B586B0BC
:1005E00000AF754B181C0121FFF74AFF80235B0207
:1005F000181C0121FFF726FF3B1C083311221A703B
:100600003B1C083300225A703B1C083301229A70AD
:100610003B1C0833181C00F0DFFD3B1C08330F2285
:100620001A703B1C083300225A703B1C083301220D
:100630009A703B1C0833181C00F0CEFD3B1C08339D
:1006400010221A703B1C083300225A703B1C0833DE
:1006500001229A703B1C0833181C00F0BDFD3B1CA6
:100660000C3300225A603B1C0C3301221A803B1CC5
:100670000C3300221A813B1C0C3300225A80802349
:10068000DA053B1C0C33101C191C00F0C1FB802345
:10069000DB05181C012100F077FC8023DB05181C0A
:1006A0000121012200F04CFC8023DB05181C0121F4
:1006B00000F026FC3B1C0C3300225A603B1C0C3320
:1006C00001221A803B1C0C3300221A813B1C0C3384
:1006D00000225A80394A3B1C0C33101C191C00F0B4
:1006E00097FB364B181C012100F04EFC334B181CB5
:1006F0000121012200F024FC304B181C012100F0E4
:10070000FFFB3B1C0C33FA2292005A603B1C0C335B
:100710002B4A1A803B1C0C3300221A813B1C0C33E1
:1007200000225A80274A3B1C0C33101C191C00F075
:100730006FFB244B181C012100F026FC214B181CD8
:100740000121012200F0FCFB1E4B181C012100F0CE
:10075000D7FB3B1C0C3301225A603B1C0C33F922A3
:100760001A803B1C0C3300221A813B1C0C330022E4
:100770005A80154A3B1C0C33101C191C00F048FB16
:10078000114B181C202100F01FFC0F4B181C0121DD
:1007900000F0B6FB3B1C1C221A603B1C02225A6074
:1007A0003B1C0020191C00F06DFD0020012100F011
:1007B00095FDBD4606B080BD13000020000400403A
:1007C0005C120000001000400040014080B582B083
:1007D00000AFE0231B03181C0121FFF715FE3B1C93
:1007E00001221A603B1C03225A713B1C01221A7120
:1007F0009023DA053B1C101C191C00F06DFA3B1C01
:10080000802252001A603B1C03225A713B1C0122B9
:100810001A71044A3B1C101C191C00F05DFABD46FD
:1008200002B080BD0008004880B582B000AFFB1D5B
:1008300000221A7034E0FB1D1A781E4B12010021B1
:10084000D154FB1D1B781B4A1B01D31800225A7080
:10085000FB1D1B78174A1B01D318043300221A60B2
:10086000FB1D1A781349082312018A18D318002295
:100870001A80FB1D1A780F49082312018A18D31811
:1008800000225A80FB1D1A780A49082312018A188F
:10089000D31800229A80FB1DFA1D127801321A70BB
:1008A000FB1D1B78022BC6D9034B00221A70BD46D4
:1008B00002B080BD000000203200002090B585B05D
:1008C00000AF041C081C111C1A1CBB1D1C807B1DC6
:1008D0001870BB1C19803B1C1A803B1C0E33002275
:1008E0001A80C0467B1D1B783D4A1B01D3185B78DC
:1008F000012BF7D07B1D1A783949082312018A1879
:10090000D3185B88002BEDD17B1D1A78344B120174
:100910000021D1547B1D1B78BA1D128830491B0160
:10092000CB1804331A607B1D1A782D490823120155
:100930008A18D318BA1C12881A807B1D1A78284985
:10094000082312018A18D3183A1C12885A807B1D7A
:100950001A782349082312018A18D31800229A8092
:100960007B1D1B781E4A1B01D31801225A707B1D68
:100970001B78012B13D0022B20D0002B2DD18023EC
:10098000DC057B1D1B78164A1B01D31804331B683A
:100990001448191C00F0C8FC031CE3621DE0124C53
:1009A0007B1D1B780E4A1B01D31804331B680D48AE
:1009B000191C00F0B9FC031CE3620EE00B4C7B1D1C
:1009C0001B78074A1B01D31804331B680548191C00
:1009D00000F0AAFC031CE362C046BD4605B090BD12
:1009E00000000020003E49000004004000100040CC
:1009F00080B582B000AF021CFB1D1A70FB1D1B7876
:100A0000104A1B01D3185B78012B17D1FB1D1A78F4
:100A1000FB1D19780B4B0901CB5CDB43D9B2094BA9
:100A20001201D154084B074A1278111C054A127C56
:100A3000891804482022825C8A189A60BD4602B058
:100A400080BDC046000000200074004080B582B028
:100A500000AFFB1D00221A7055E0FB1D1B782D4ACC
:100A60001B01D3185B78012B2ED1FB1D1A78294965
:100A7000082312018A18D3181B88002B10D0FB1DE5
:100A80001B7824480822190141188A181288013A53
:100A900092B2204808211B01C3185B181A802DE070
:100AA000FB1D1B781B4A1B01D31800225A701A4BDE
:100AB0001B78013BDAB2184B1A70FB1D1A78154BE4
:100AC00012010021D15419E0FB1D1A7811490823A5
:100AD00012018A18D3185B88002B0FD0FB1D1B78DE
:100AE0000C480822190141188A185288013A92B21A
:100AF000084808211B01C3185B185A80FB1DFA1D0A
:100B0000127801321A70FB1D1B78022BA5D9BD4645
:100B100002B080BD000000203200002080B582B00D
:100B200000AFFFF713FDFFF751FEFFF77DFEFFF764
:100B300055FDFB1D00221A703649FA235A00364B28
:100B4000081C0021FFF7BAFE3449FA235A00324B41
:100B5000081C0021FFF7B2FEFA235900FA23DA003D
:100B60002D4B081C0121FFF7A9FE2D49FA235A003D
:100B7000294B081C0021FFF7A1FE2A49FA235A003D
:100B8000254B081C0021FFF799FE2749FA235A003C
:100B9000214B081C0021FFF791FE2449FA235A003B
:100BA0001D4B081C0021FFF789FEB9231901FA2308
:100BB0005A00194B081C0021FFF780FEC4231901BD
:100BC000FA235A00144B081C0021FFF777FE18493E
:100BD000FA235A00104B081C0021FFF76FFED723A1
:100BE0001901FA235A000C4B081C0021FFF766FE7E
:100BF0001049FA235A00084B081C0021FFF75EFE3B
:100C00000D49FA235A00044B081C0021FFF756FE39
:100C100092E7C04605010000EE0200001501000049
:100C200025010000B90900004D0A0000EA0A000091
:100C3000040D0000910E00006F0F000080B500AFA2
:100C40000020FFF7D5FE8023DB05181C012100F0F2
:100C5000ABF9BD4680BDC04680B500AF0120FFF7AF
:100C6000C7FE034B181C012100F09EF9BD4680BD54
:100C70000004004080B500AFFFF7E8FE034B181CEE
:100C8000012100F091F9BD4680BDC0460010004032
:100C9000002103E00A4B5B584350043109480A4BDA
:100CA00042189A42F6D3094A02E000231360043244
:100CB000074B9A42F9D300F0A3F9FFF72FFF7047D3
:100CC000C8130008000000200000002000000020E1
:100CD00034000020FEE7000080B586B000AF7860E9
:100CE000396000237B6100233B610023FB6000230C
:100CF0007B6185E07B690122101C9840031C3B61ED
:100D00003B681B683A691340FB60FA683B699A428A
:100D100073D13B681B79012B03D03B681B79022BF5
:100D200038D17B689B687A6952000321081C904087
:100D3000021CD2431A407B689A607B689A683B68C1
:100D40005B79191C7B695B00081C9840031C1A43E3
:100D50007B689A607B689B889BB27A6992B201211A
:100D6000081C9040021C92B2D24392B213409AB235
:100D70007B689A807B689B889AB23B689B79191C38
:100D80007B699BB2081C9840031C9BB213439AB228
:100D90007B689A807B681B687A6952000321081C73
:100DA0009040021CD2431A407B681A607B681A6824
:100DB0003B681B79191C7B695B00081C9840031C6D
:100DC0001A437B681A607B68DB687A6992B25200CA
:100DD0000321081C9040021CD2431A407B68DA6051
:100DE0007B68DA683B68DB79191C7B695B00081C4F
:100DF0009840031C1A437B68DA607B6901337B618E
:100E00007B690F2B00D875E7BD4606B080BDC04694
:100E100080B584B000AF786039603B1C0E3300228F
:100E20001A803B1C0E337A6812881A807A682D4B20
:100E30009A4208D07A688023DB059A4203D07A6808
:100E4000294B9A4210D13B1C0E333A1C0E321288A9
:100E500070218A431A803B6859883B1C0E333A1C28
:100E60000E3212880A431A807A68204B9A4210D0B8
:100E70003B1C0E333A1C0E3211881D4A0A401A8060
:100E80003B6819893B1C0E333A1C0E3212880A4308
:100E90001A807B683A1C0E3212881A803B685A68A6
:100EA0007B68DA623B681A887B681A857A680D4B22
:100EB0009A420BD07A680F4B9A4207D07A680E4B51
:100EC0009A4203D07A680D4B9A4204D13B689B7AD0
:100ED0001A1C7B681A867B6801229A82BD4604B080
:100EE00080BDC046002C01400004004000100040BE
:100EF000FFFCFFFF0040014000440140004801406A
:100F000080B582B000AF78600A1CFB1C1A70FB1C15
:100F10001B78002B08D07B681B889BB201221343EF
:100F20009AB27B681A8007E07B681B889BB201221B
:100F300093439AB27B681A80BD4602B080BDC0461A
:100F400080B582B000AF7860BB1C19807B1C1A7022
:100F50007B1C1B78002B09D07B689B899AB2BB1C39
:100F60001B8813439AB27B689A810AE07B689B894D
:100F70009BB2BA1C1288D24392B213409AB27B68D9
:100F80009A81BD4602B080BD80B582B000AF786066
:100F90000A1CBB1C1A80BB1C1B88DB439AB27B68F3
:100FA0001A82BD4602B080BD80B582B000AF7860C5
:100FB0000A1CBB1C1A80BB1C1B88DB439AB27B68D3
:100FC0001A82BD4602B080BD80B582B000AF7860A5
:100FD0000A1CBB1C1A807B689B889BB270229343BF
:100FE0009AB27B689A807B689B889AB2BB1C1B88EC
:100FF00013439AB27B689A80BD4602B080BDC0465A
:1010000080B500AF1B4B1B4A126801210A431A60CE
:10101000184B184A5168184A0A405A60154B154A2D
:101020001168164A0A401A60124B124A1168144A93
:101030000A401A600F4B0F4A5168124A0A405A6020
:101040000C4B0C4AD26A0F218A43DA62094B094AD7
:10105000116B0D4A0A401A63064B064A526B012176
:101060008A435A63034B00229A6000F00FF8BD4692
:1010700080BDC046001002400CB8FFF8FFFFF6FE2E
:10108000FFFFFBFFFFFFC0FFACFEFFFF80B582B09C
:1010900000AF00237B6000233B60314B304A126875
:1010A000802149020A431A602D4B1A6880239B0253
:1010B00013403B607B6801337B603B68002B04D1AD
:1010C0007A68A023DB009A42EED1254B1A68802370
:1010D0009B02134002D001233B6001E000233B60F0
:1010E0003B68012B38D11F4B11221A601C4B1C4A44
:1010F00052685A601A4B1A4A52685A60184B184A7A
:101100005168194A0A405A60154B154A526888219D
:1011100049030A435A60124B114A1268802149045C
:101120000A431A60C0460E4B1A6880239B04134082
:10113000F9D00B4B0A4A526803218A435A60084B84
:10114000074A526802210A435A60C046044B5A6853
:101150000C231340082BF9D1BD4602B080BDC04618
:101160000010024000200240FFFFC0FF80B584B0A5
:1011700000AF78600023FB60084B1B68FB60FB68D6
:1011800001229343FB60FA687B681343FB60034BC7
:10119000FA681A60BD4604B080BDC0460020024017
:1011A00080B582B000AF021CFB1D1A70FB1D1B78BE
:1011B000002B06D0074B074A126810210A431A6019
:1011C00005E0044B034A126810218A431A60BD46A9
:1011D00002B080BD0020024080B584B000AF7860CE
:1011E0000023FB607B689B78002B3CD0244B7A6803
:1011F00012789208D2B2C0329200D358FB607B685A
:101200001B781A1C03231340DB00FF22101C98409C
:10121000031CDA43FB681340FB607B685B789A0130
:10122000FF231A407B681B78191C03230B40DB004B
:10123000111C99400B1CFA681343FB60104B7A6831
:1012400012789208D2B2C0329200F968D1500C4B99
:101250007A681278111C1F220A400121081C904054
:10126000021C1A6009E0064A7B681B78191C1F23C0
:101270000B40012199408023D150BD4604B080BD70
:1012800000E100E080B584B000AF786039600023F1
:10129000FB600023BB60104B1B68FB607B683E2239
:1012A000111C99400B1CDA43FB681340FB603B6840
:1012B0001A683B685B681343BB607B68BA68111CA3
:1012C00099400B1CFA681343FB60034BFA681A60E1
:1012D000BD4604B080BDC0460074004090B583B0E8
:1012E00000AF78600A1CFB1C1A70FB1C1B78002BDB
:1012F0000AD00C4B0B4A11687A680120041C9440F8
:10130000221C0A431A600AE0064B064A12687968F2
:101310000120041C8C40211CC9430A401A60BD46B0
:1013200003B090BD00740040002934D00123002296
:1013300010B488422CD301242407A14204D2814254
:1013400002D209011B01F8E7E400A14204D2814264
:1013500002D249005B00F8E7884201D3401A1A43E1
:101360004C08A04202D3001B5C0822438C08A04218
:1013700002D3001B9C082243CC08A04202D3001BCE
:10138000DC082243002803D01B0901D00909E3E748
:10139000101C10BC7047002801D00020C04307B4C7
:1013A000024802A14018029003BDC0461900000087
:1013B0000029F0D003B5FFF7B9FF0EBC4243891AEC
:0813C0001847C0467047C04603
:0400000508000000EF
:00000001FF
