:1000000000200020A10C0000E50C0000E50C000021
:1000100000000000000000000000000000000000E0
:10002000000000000000000000000000E50C0000DF
:100030000000000000000000E50C0000E50C0000DE
:10004000E50C0000E50C0000E50C0000E50C0000EC
:10005000E50C0000E50C0000E50C0000E50C0000DC
:10006000E50C0000E50C0000E50C0000E50C0000CC
:10007000E50C0000E50C0000E50C0000E50C0000BC
:10008000E50C0000E50C000000000000E50C00009D
:10009000E50C0000E50C0000E50C0000E50C00009C
:1000A000E50C0000E50C0000E50C0000E50C00008C
:1000B000E50C000000000000E50C0000000000005E
:1000C0005FF808F180B500AF1A4B1A4A1268012197
:1000D0000A431A60174B174A5168174A0A405A6078
:1000E000144B144A1168154A0A401A60114B114A00
:1000F0001168134A0A401A600E4B0E4A5168114AA1
:100100000A405A600B4B0B4AD26A0F218A43DA62CB
:10011000084B084A116B0C4A0A401A63054B054A02
:10012000526B01218A435A63024B00229A60BD46FA
:1001300080BDC046001002400CB8FFF8FFFFF6FE7D
:10014000FFFFFBFFFFFFC0FFACFEFFFF80B582B0EB
:1001500000AF021CFB1D1A70044B00221A70034BE7
:10016000FA1D12781A70BD4602B080BD021002401E
:1001700090B583B000AF00233B60FB1D00221A70D6
:10018000BB1D00221A70BC1D112000F0C3F9031C16
:1001900023703B6801333B603A68A023DB009A423E
:1001A00003D0BB1D1B78002BEDD0112000F0B2F95D
:1001B000031C002B03D0FB1D01221A7002E0FB1D63
:1001C00000221A70FB1D1B78181CBD4603B090BDA1
:1001D00080B582B000AF021CFB1D1A70FB1D1B789E
:1001E000002B06D0074B074A126801210A431A6008
:1001F00005E0044B034A126801218A431A60BD4698
:1002000002B080BD0010024080B582B000AF7860BF
:100210003960084B074A5168074A0A405A60054B43
:10022000044A516878683A6802430A435A60BD46F6
:1002300002B080BD00100240FFFFC2FF80B582B057
:1002400000AF021CFB1D1A70FB1D1B78002B07D092
:10025000084B084A1268802149040A431A6005E0E5
:10026000044B044A1168044A0A401A60BD4602B0B1
:1002700080BDC04600100240FFFFFFFE80B584B085
:1002800000AF78600023FB60084BDB6AFB60FB6813
:100290000F229343FB60FA687B681343FB60034BB8
:1002A000FA68DA62BD4604B080BDC0460010024064
:1002B00080B584B000AF78600023FB60084B5B68BA
:1002C000FB60FB6803229343FB60FA687B6813437F
:1002D000FB60034BFA685A60BD4604B080BDC0465F
:1002E0000010024080B500AF044B5B68DAB20C230B
:1002F0001340DBB2181CBD4680BDC0460010024052
:1003000080B584B000AF78600023FB60084B5B6869
:10031000FB60FB68F0229343FB60FA687B68134341
:10032000FB60034BFA685A60BD4604B080BDC0460E
:100330000010024080B584B000AF78600023FB60FD
:10034000084B5B68FB60FA68074B1340FB60FA6878
:100350007B681343FB60034BFA685A60BD4604B0E8
:1003600080BDC04600100240FFF8FFFF80B582B09C
:1003700000AF78600E4B0E4A51680E4A0A405A6030
:100380000B4B0B4A51687A681204120C0A435A60EC
:10039000074B074A116B084A0A401A63044B044A88
:1003A000116B7A68120C0A431A63BD4602B080BD15
:1003B00000100240FFBFFFFFFFFEFFFF80B582B0CD
:1003C00000AF7860074B074A126B10218A431A630B
:1003D000044B044A116B7A680A431A63BD4602B0A3
:1003E00080BDC0460010024080B582B000AF78608A
:1003F0000A1CFB1C1A70FB1C1B78002B06D0084B38
:10040000074A51697A680A435A6106E0044B044A74
:1004100052697968C9430A405A61BD4602B080BD3D
:100420000010024080B582B000AF78600A1CFB1C4F
:100430001A70FB1C1B78002B06D0084B074A9169E9
:100440007A680A439A6106E0044B044A9269796823
:10045000C9430A409A61BD4602B080BD0010024007
:1004600080B582B000AF78600A1CFB1C1A70FB1CC0
:100470001B78002B06D0084B074AD1697A680A43DB
:10048000DA6106E0044B044AD2697968C9430A403C
:10049000DA61BD4602B080BD0010024080B582B076
:1004A00000AF78600A1CFB1C1A70FB1C1B78002B29
:1004B00006D0084B074AD1687A680A43DA6006E03A
:1004C000044B044AD2687968C9430A40DA60BD46E1
:1004D00002B080BD0010024080B582B000AF7860ED
:1004E0000A1CFB1C1A70FB1C1B78002B06D0084B47
:1004F000074A11697A680A431A6106E0044B044A04
:1005000012697968C9430A401A61BD4602B080BDCC
:100510000010024080B586B000AF021CFB1D1A70AF
:100520000023FB6000237B613B1C133300221A7005
:10053000FB1D1B785B09DBB2FB60FB68002B03D162
:10054000174B1B687B6110E0FB68012B03D1144B38
:100550001B6A7B6109E0FB68022B03D1104B5B6ACD
:100560007B6102E00E4B5B6B7B61FB1D1A781F23E6
:100570001340FB60FB687A69DA400123134004D022
:100580003B1C133301221A7003E03B1C133300227F
:100590001A703B1C13331B78181CBD4606B080BD77
:1005A0000010024080B582B000AF78607A68094BD5
:1005B0009A420BD180239B00181C0121FFF76EFF8C
:1005C00080239B00181C0021FFF768FFBD4602B086
:1005D00080BDC0460024014080B584B000AF786083
:1005E00039600023FB607B68DB68FB60FA680F4BB7
:1005F0001340FB603B681A683B681B795B031A4336
:100600003B689B681A433B68DB681A433B681B697D
:100610001A433B685B691343FA681343FB607B68CA
:10062000FA68DA60BD4604B080BDC04603D2FFFF61
:1006300080B582B000AF78600A1CFB1C1A70FB1CEE
:100640001B78002B06D07B689B6801221A437B68CD
:100650009A6005E07B689B6802221A437B689A6077
:10066000BD4602B080BDC04680B582B000AF7860A4
:100670000A1CFB1C1A70FB1C1B78002B07D07B6824
:10068000DB68802212021A437B68DA6005E07B682F
:10069000DA68034B1A407B68DA60BD4602B080BD61
:1006A000FF7FFFFF80B582B000AF78600A1CFB1CA3
:1006B0001A70FB1C1B78002B07D07B68DB6880223C
:1006C000D2011A437B68DA6005E07B68DA68034B85
:1006D0001A407B68DA60BD4602B080BDFFBFFFFFF5
:1006E00080B586B000AFF860B9607A6000237B61A6
:1006F000FB689A6ABB681A43FB689A627B690722A7
:1007000093437B617A697B6813437B61FB687A69F9
:100710005A61BD4606B080BD80B586B000AF786036
:1007200000237B6100233B610023FB607B689B68A7
:10073000802212061A437B689A607B689B68DB0FF5
:10074000DB07FB603B6901333B613A69F0231B0225
:100750009A4202D0FB68002BEFD17B689B68002B8C
:1007600003DB7B681B6C7B6101E000237B617B69A1
:10077000181CBD4606B080BD80B582B000AF786061
:100780007B689B6804221A437B689A60BD4602B06E
:1007900080BDC04680B584B000AF786039603B1C36
:1007A0000F3300221A700023BB603A6880235B0479
:1007B000134005D07B689A680D4B1340BB6002E084
:1007C0007B681B68BB60BB683A68134004D03B1C65
:1007D0000F3301221A7003E03B1C0F3300221A7002
:1007E0003B1C0F331B78181CBD4604B080BDC046AF
:1007F000FFFFFFFE80B582B000AF78609023DB057D
:1008000000229A820B4B7A6892B29A81C046094BB9
:100810001B899BB21A1C01231340F8D0054B9B89FE
:100820009BB27B609023DB0510229A82BD4602B00A
:1008300080BDC0460030014080B500AF0120FFF709
:10084000D9FF0320FFF7D6FF1120FFF7D3FF1320B6
:10085000FFF7D0FF2020FFF7CDFF2520FFF7CAFFCD
:100860003F20FFF7C7FF3A20FFF7C4FF81235B005B
:10087000181CFFF7BFFF3620FFF7BCFF90235B007B
:10088000181CFFF7B7FF3520FFF7B4FF2920FFF74B
:10089000B1FFBD4680BDC04680B586B000AFF860F0
:1008A000B9607A603B602A20FFF7A4FFBB68013380
:1008B000FF33181CFFF79EFFBA683B68D318FF335D
:1008C000181CFFF797FF2B20FFF794FFFB680133FD
:1008D000FF33181CFFF78EFFFA687B68D318FF33CD
:1008E000181CFFF787FF2C20FFF784FF3B687A680E
:1008F00053433B6101237B6108E03B6A0133FF33D3
:10090000181CFFF777FF7B6901337B617A693B69CC
:100910009A42F2D9BD4606B080BDC04680B500AF50
:10092000012000F015FD012000F0F8FCFFF7CAFBE4
:100930000120FFF70BFCFFF71BFC031C012B2BD145
:100940000020FFF7DDFC0020FFF7F4FC134B181C20
:10095000FFF70CFD1020FFF731FD0020FFF78EFCA4
:1009600080235B02181C0021FFF74EFC0120FFF7DB
:1009700065FCC0461920FFF7CDFD031C002BF9D004
:100980000220FFF795FCC046FFF7ACFC031C082BC8
:10099000FAD10020FFF71CFCBD4680BD00400001DD
:1009A00080B584B000AF02200121FFF759FD0F4B45
:1009B000181C00F0D7FA3B1D00225A603B1D002294
:1009C0001A803B1D00221A813B1D00225A80074AD3
:1009D0003B1D101C191C00F057FB044B181C202158
:1009E00000F0CAFBBD4604B080BDC0460004004014
:1009F00080B586B000AF274B181CFFF7D3FD8023CE
:100A00009B00181C0121FFF70DFD3B1C00221A6002
:100A10003B1C01221A713B1C802212019A603B1C74
:100A2000C022DA603B1C00221A613B1C00225A6182
:100A3000184A3B1C101C191CFFF7CEFD154A8023D9
:100A40001B01101C191C0722FFF74AFE114B181C32
:100A5000FFF762FE0F4B181C0121FFF723FE0D4B21
:100A6000181C0121FFF700FE0A4B181C0121FFF79B
:100A7000DFFDC046074A084B101C191CFFF78AFE11
:100A8000031C002BF6D0034B181CFFF775FEBD4668
:100A900006B080BD002401400100000180B582B095
:100AA00000AF80231B03181C0121FFF79DFC3B1C9A
:100AB00003225A713B1C114A1A603B1C01221A7115
:100AC0000F4A3B1C101C191C00F0B0F98023DB02FC
:100AD000181C0121FFF788FC3B1C03225A713B1CA8
:100AE00001221A713B1C1F221A60064A3B1C101C73
:100AF000191C00F09BF9BD4602B080BDFFFF00004D
:100B0000000800480004004880B586B000AF80238C
:100B10005B01181C0121FFF785FC3B1D00229A8117
:100B20003B1D01221A813B1D0222DA803B1D8022DF
:100B300012019A803B1D00221A803B1D0022DA819F
:100B40003B1D822252005A803B1D802292005A8116
:100B5000064A3B1D101C191C00F0C6F8034B181C5C
:100B6000012100F043F9BD4606B080BD00300140D0
:100B700080B586B002AFFFF7D1FEFFF78FFFFFF71A
:100B800037FFFFF70DFFFFF7BFFFFFF755FE00230D
:100B900000930120012182228223FFF77DFE0123A1
:100BA000FB600123BB6000E0C0469023DB051B8A8D
:100BB0009BB21A1C042313400CD100230093012084
:100BC000012182228223FFF767FEBB680A3BBB60DC
:100BD00001237B609023DB051B8A9BB21A1C8023B8
:100BE0009B0013400CD1002300930120012182229D
:100BF0008223FFF751FEBB680A33BB6001237B6091
:100C00009023DB051B8A9BB21A1C80235B001340D8
:100C10000CD1002300930120012182228223FFF7BF
:100C20003BFEFB680A33FB6001237B609023DB05FE
:100C30001B8A9BB21A1C022313400CD10023009381
:100C40000120012182228223FFF726FEFB680A3B56
:100C5000FB6001237B60BA68FB680B210091101CCC
:100C6000191C1E221E23FFF717FE7B68012B9BD148
:100C7000034B181C00F006F800237B6094E7C04685
:100C800060AE0A0080B582B000AF786002E07B6899
:100C9000013B7B607B68002BF9D1BD4602B080BD73
:100CA000002103E00A4B5B584350043109480A4BCA
:100CB00042189A42F6D3094A02E000231360043234
:100CC000074B9A42F9D300F073FAFFF751FF7047D0
:100CD0008813000000000020000000200000002019
:100CE00000000020FEE7000080B584B000AF78600F
:100CF00039603B1C0E3300221A803B1C0E337A688D
:100D000012881A803B1C0E333A1C0E321188C12205
:100D100092010A401A803B681A883B68DB891343BA
:100D20009AB23B68DB8813439AB23B681B89134332
:100D30009AB23B685B8913439AB23B689B89134321
:100D400099B23B1C0E333A1C0E3212880A431A80A9
:100D50007B683A1C0E3212881A803B1C0E337A686C
:100D600092881A803B1C0E333A1C0E3211881D4AA1
:100D70000A401A803B6899883B1C0E333A1C0E329D
:100D800012880A431A807B683A1C0E3212889A80B5
:100D90003B681A8A7B681A823B1C0E337A68128879
:100DA0001A803B1C0E333A1C0E32128804218A43EF
:100DB0001A803B6859883B1C0E333A1C0E3212884D
:100DC0000A431A807B683A1C0E3212881A807B68AC
:100DD0009B8B9AB2044B13409AB27B689A83BD46B0
:100DE00004B080BDFFF0FFFFFFF7FFFF80B582B0CA
:100DF00000AF78600A1CFB1C1A70FB1C1B78002BD0
:100E000008D07B681B889BB2402213439AB27B6850
:100E10001A8007E07B681B889BB2402293439AB2FA
:100E20007B681A80BD4602B080BDC04680B586B0E2
:100E300000AF7860396000237B6100233B610023B1
:100E4000FB6000237B6185E07B690122101C9840D8
:100E5000031C3B613B681B683A691340FB60FA68FE
:100E60003B699A4273D13B681B79012B03D03B68E5
:100E70001B79022B38D17B689B687A695200032169
:100E8000081C9040021CD2431A407B689A607B6821
:100E90009A683B685B79191C7B695B00081C984069
:100EA000031C1A437B689A607B689B889BB27A69B3
:100EB00092B20121081C9040021C92B2D24392B21D
:100EC00013409AB27B689A807B689B889AB23B6891
:100ED0009B79191C7B699BB2081C9840031C9BB230
:100EE00013439AB27B689A807B681B687A695200C8
:100EF0000321081C9040021CD2431A407B681A60F0
:100F00007B681A683B681B79191C7B695B00081CAD
:100F10009840031C1A437B681A607B68DB687A6917
:100F200092B252000321081C9040021CD2431A4086
:100F30007B68DA607B68DA683B68DB79191C7B695F
:100F40005B00081C9840031C1A437B68DA607B69CD
:100F500001337B617B690F2B00D875E7BD4606B076
:100F600080BDC04680B582B000AF78607A683F4BE4
:100F70009A420CD180231B01181C0121FFF78EFA25
:100F800080231B01181C0021FFF788FA6AE07A68A9
:100F90008023DB059A4208D101200121FFF79CFA4A
:100FA00001200021FFF798FA5CE07A68304B9A4202
:100FB00008D102200121FFF78FFA02200021FFF75C
:100FC0008BFA4FE07A682B4B9A4208D1102001210E
:100FD000FFF782FA10200021FFF77EFA42E07A68DC
:100FE000254B9A420CD180235B00181C0121FFF78E
:100FF00073FA80235B00181C0021FFF76DFA31E0C3
:101000007A681E4B9A420CD180235B02181C012186
:10101000FFF744FA80235B02181C0021FFF73EFA19
:1010200020E07A68164B9A420CD180239B02181C50
:101030000121FFF733FA80239B02181C0021FFF7E0
:101040002DFA0FE07A680F4B9A420BD18023DB0216
:10105000181C0121FFF722FA8023DB02181C002153
:10106000FFF71CFABD4602B080BDC046002C01400F
:1010700000040040001000400020004000400140FB
:10108000004401400048014080B584B000AF786062
:1010900039603B1C0E3300221A803B1C0E337A68E9
:1010A00012881A807A682D4B9A4208D07A68802379
:1010B000DB059A4203D07A68294B9A4210D13B1C37
:1010C0000E333A1C0E32128870218A431A803B6814
:1010D00059883B1C0E333A1C0E3212880A431A8080
:1010E0007A68204B9A4210D03B1C0E333A1C0E32C9
:1010F00011881D4A0A401A803B6819893B1C0E332F
:101100003A1C0E3212880A431A807B683A1C0E324F
:1011100012881A803B685A687B68DA623B681A88D2
:101120007B681A857A680D4B9A420BD07A680F4B10
:101130009A4207D07A680E4B9A4203D07A680D4BD8
:101140009A4204D13B689B7A1A1C7B681A867B689A
:1011500001229A82BD4604B080BDC046002C0140E9
:101160000004004000100040FFFCFFFF0040014071
:10117000004401400048014080B582B000AF786073
:101180000A1CBB1C1A807B689B889BB2702293430D
:101190009AB27B689A807B689B889AB2BB1C1B883A
:1011A00013439AB27B689A80BD4602B080BDC046A8
:1011B00080B500AF1B4B1B4A126801210A431A601D
:1011C000184B184A5168184A0A405A60154B154A7C
:1011D0001168164A0A401A60124B124A1168144AE2
:1011E0000A401A600F4B0F4A5168124A0A405A606F
:1011F0000C4B0C4AD26A0F218A43DA62094B094A26
:10120000116B0D4A0A401A63064B064A526B0121C4
:101210008A435A63034B00229A6000F00FF8BD46E0
:1012200080BDC046001002400CB8FFF8FFFFF6FE7C
:10123000FFFFFBFFFFFFC0FFACFEFFFF80B582B0EA
:1012400000AF00237B6000233B60314B304A1268C3
:10125000802149020A431A602D4B1A6880239B02A1
:1012600013403B607B6801337B603B68002B04D1FB
:101270007A68A023DB009A42EED1254B1A688023BE
:101280009B02134002D001233B6001E000233B603E
:101290003B68012B38D11F4B11221A601C4B1C4A92
:1012A00052685A601A4B1A4A52685A60184B184AC8
:1012B0005168194A0A405A60154B154A52688821EC
:1012C00049030A435A60124B114A126880214904AB
:1012D0000A431A60C0460E4B1A6880239B041340D1
:1012E000F9D00B4B0A4A526803218A435A60084BD3
:1012F000074A526802210A435A60C046044B5A68A2
:101300000C231340082BF9D1BD4602B080BDC04666
:101310000010024000200240FFFFC0FF80B584B0F3
:1013200000AF78600023FB60084B1B68FB60FB6824
:1013300001229343FB60FA687B681343FB60034B15
:10134000FA681A60BD4604B080BDC0460020024065
:1013500080B582B000AF021CFB1D1A70FB1D1B780C
:10136000002B06D0074B074A126810210A431A6067
:1013700005E0044B034A126810218A431A60BD46F7
:0813800002B080BD0020024014
:00000001FF
