:020000040800F2
:1000000000200020190A0008590A0008590A0008AF
:1000100000000000000000000000000000000000E0
:10002000000000000000000000000000590A000865
:100030000000000000000000590A0008590A0008EA
:10004000590A0008590A0008590A0008590A000804
:10005000590A0008590A0008590A0008590A0008F4
:10006000590A0008590A0008590A0008590A0008E4
:10007000590A0008590A0008590A0008590A0008D4
:10008000590A0008590A000800000000590A00082F
:10009000590A0008590A0008590A0008590A0008B4
:1000A000590A0008590A0008590A0008590A0008A4
:1000B000590A000800000000590A0008000000006A
:1000C0005FF808F180B500AF1A4B1A4A1268012197
:1000D0000A431A60174B174A5168174A0A405A6078
:1000E000144B144A1168154A0A401A60114B114A00
:1000F0001168134A0A401A600E4B0E4A5168114AA1
:100100000A405A600B4B0B4AD26A0F218A43DA62CB
:10011000084B084A116B0C4A0A401A63054B054A02
:10012000526B01218A435A63024B00229A60BD46FA
:1001300080BDC046001002400CB8FFF8FFFFF6FE7D
:10014000FFFFFBFFFFFFC0FFACFEFFFF80B582B0EB
:1001500000AF021CFB1D1A70044B00221A70034BE7
:10016000FA1D12781A70BD4602B080BD021002401E
:1001700090B583B000AF00233B60FB1D00221A70D6
:10018000BB1D00221A70BC1D112000F04BF9031C8E
:1001900023703B6801333B603A68A023DB009A423E
:1001A00003D0BB1D1B78002BEDD0112000F03AF9D5
:1001B000031C002B03D0FB1D01221A7002E0FB1D63
:1001C00000221A70FB1D1B78181CBD4603B090BDA1
:1001D00080B582B000AF021CFB1D1A70FB1D1B789E
:1001E000002B06D0074B074A126801210A431A6008
:1001F00005E0044B034A126801218A431A60BD4698
:1002000002B080BD0010024080B582B000AF7860BF
:100210003960084B074A5168074A0A405A60054B43
:10022000044A516878683A6802430A435A60BD46F6
:1002300002B080BD00100240FFFFC2FF80B582B057
:1002400000AF021CFB1D1A70FB1D1B78002B07D092
:10025000084B084A1268802149040A431A6005E0E5
:10026000044B044A1168044A0A401A60BD4602B0B1
:1002700080BDC04600100240FFFFFFFE80B584B085
:1002800000AF78600023FB60084BDB6AFB60FB6813
:100290000F229343FB60FA687B681343FB60034BB8
:1002A000FA68DA62BD4604B080BDC0460010024064
:1002B00080B584B000AF78600023FB60084B5B68BA
:1002C000FB60FB6803229343FB60FA687B6813437F
:1002D000FB60034BFA685A60BD4604B080BDC0465F
:1002E0000010024080B500AF044B5B68DAB20C230B
:1002F0001340DBB2181CBD4680BDC0460010024052
:1003000080B584B000AF78600023FB60084B5B6869
:10031000FB60FB68F0229343FB60FA687B68134341
:10032000FB60034BFA685A60BD4604B080BDC0460E
:100330000010024080B584B000AF78600023FB60FD
:10034000084B5B68FB60FA68074B1340FB60FA6878
:100350007B681343FB60034BFA685A60BD4604B0E8
:1003600080BDC04600100240FFF8FFFF80B582B09C
:1003700000AF78600E4B0E4A51680E4A0A405A6030
:100380000B4B0B4A51687A681204120C0A435A60EC
:10039000074B074A116B084A0A401A63044B044A88
:1003A000116B7A68120C0A431A63BD4602B080BD15
:1003B00000100240FFBFFFFFFFFEFFFF80B582B0CD
:1003C00000AF7860074B074A126B10218A431A630B
:1003D000044B044A116B7A680A431A63BD4602B0A3
:1003E00080BDC0460010024080B582B000AF78608A
:1003F0000A1CFB1C1A70FB1C1B78002B06D0084B38
:10040000074A51697A680A435A6106E0044B044A74
:1004100052697968C9430A405A61BD4602B080BD3D
:100420000010024080B586B000AF021CFB1D1A70A0
:100430000023FB6000237B613B1C133300221A70F6
:10044000FB1D1B785B09DBB2FB60FB68002B03D153
:10045000174B1B687B6110E0FB68012B03D1144B29
:100460001B6A7B6109E0FB68022B03D1104B5B6ABE
:100470007B6102E00E4B5B6B7B61FB1D1A781F23D7
:100480001340FB60FB687A69DA400123134004D013
:100490003B1C133301221A7003E03B1C1333002270
:1004A0001A703B1C13331B78181CBD4606B080BD68
:1004B0000010024080B582B000AF786002E07B6837
:1004C000013B7B607B68002BF9D1BD4602B080BD4B
:1004D00080B582B000AF021CFB1D1A70174A802342
:1004E000DB00101C191C002200F054FB134A80236F
:1004F0005B01101C191C012200F04CFB0F4B0F4A32
:10050000928A92B2FF218A4391B2FA1D127892B276
:100510008A1892B29A82094A80235B01101C191C26
:10052000002200F037FB054A80239B00101C191C99
:10053000012200F02FFBBD4602B080BD0004004840
:1005400080B582B000AF021CFB1D1A70174A8023D1
:100550009B00101C191C002200F01CFB134A802376
:10056000DB00101C191C012200F014FB0F4A802331
:100570005B01101C191C012200F00CFB0B4B0B4AF9
:10058000928A92B2FF218A4391B2FA1D127892B2F6
:100590008A1892B29A82054A80235B01101C191CAA
:1005A000002200F0F7FABD4602B080BD000400480A
:1005B00080B500AF0E4A80235B00101C191C00227E
:1005C00000F0E8FA0B4B181CFFF774FF084A802371
:1005D0005B00101C191C012200F0DCFA044A802385
:1005E0009B00101C191C012200F0D4FABD4680BDEE
:1005F000000400481027000080B500AFFFF7D8FFC7
:100600000020FFF79DFF3220FFF762FF0120FFF778
:1006100097FF0720FFF75CFF0220FFF791FF1D20E7
:10062000FFF756FF0320FFF78BFF7F20FFF750FFF8
:100630000420FFF785FF0020FFF74AFF0820FFF79F
:100640007FFF0020FFF744FF0920FFF779FF00201C
:10065000FFF73EFFBD4680BD80B582B000AF0A20E7
:10066000FFF76EFF0020FFF733FF0B20FFF768FF57
:100670000020FFF72DFFBB1D00221A805CE0324AEC
:1006800080239B00101C191C002200F083FA2E4AC4
:100690008023DB00101C191C012200F07BFA2A4A7F
:1006A00080235B01101C191C012200F073FA264BF9
:1006B000254A928A92B2FF218A4392B20C3292B2B8
:1006C0009A82214A80235B01101C191C002200F031
:1006D00061FA1D4A8023DB00101C191C002200F067
:1006E00059FA194A80235B01101C191C012200F0E1
:1006F00051FA154B144A928A92B2FF218A4391B261
:10070000BA1D12881148825C8A1892B29A820E4AE7
:1007100080235B01101C191C002200F03BFA0A4ADE
:1007200080239B00101C191C012200F033FABB1D12
:10073000BA1D128801321A80BB1D1A88044B9A42D6
:100740009DD9BD4602B080BD0004004800000020D5
:10075000FF0E000090B585B000AFBB1D18803B1D9B
:100760001980BB1C1A803B1D1B88013B9BB21A1CC5
:100770001201D31A5B0099B2BB1D1B88013B002BF1
:1007800000DA0733DB109AB23B1C0E338A181A804A
:10079000BB1D1B885A1E234B134004D5013B082266
:1007A0005242134301331A1C3B1C0C331A80BB1CEE
:1007B0001B88002B02D0012B19D02FE03B1C0E33DD
:1007C0001B883A1C0E32128817498A5CD2B2391C37
:1007D0000C3109880120041C8C40211CC9B2C9437A
:1007E000C9B20A40D2B2D1B20F4AD15416E03B1C72
:1007F0000E331B883A1C0E3212880B498A5CD1B228
:100800003A1C0C3212880120041C9440221CD2B2E3
:100810000A43D2B2D1B2044AD154C046BD4605B053
:1008200090BDC046070000800000002090B585B054
:1008300000AF041C081C111C1A1CBB1D1C803B1D96
:100840001880BB1C19803B1C1A803B1C0E333A1DC0
:1008500012881A802BE03B1C0C33BA1D12881A80B8
:1008600014E03B1C0C3319883B1C0E331A883B1CCC
:1008700020331B88081C111C1A1CFFF76BFF3B1C44
:100880000C333A1C0C32128801321A803B1C0C3398
:100890001A88BB1D1988BB1C1B88CB189A42E0DB49
:1008A0003B1C0E333A1C0E32128801321A803B1C5C
:1008B0000E331A883B1D19883B1C1B88CB189A42A3
:1008C000C9DBBD4605B090BD80B500AF012000F08A
:1008D00093F9012000F076F9FFF7F4FB0120FFF710
:1008E00035FCFFF745FC031C012B2DD10020FFF741
:1008F00007FD0020FFF71EFD144B181CFFF736FD07
:100900001020FFF75BFD0020FFF7B8FC80235A02A0
:1009100080235B03101C191CFFF776FC0120FFF7F6
:100920008DFCC0461920FFF77DFD031C002BF9D07C
:100930000220FFF7BDFCC046FFF7D4FC031C082BC8
:10094000FAD10020FFF744FCBD4680BD0040000105
:1009500080B582B000AF80231B03181C0121FFF774
:1009600043FD3B1C03225A713B1C01221A713B1CA4
:10097000C02292001A600F4A3B1C101C191C00F088
:100980006DF88023DB02181C0121FFF72DFD3B1CB5
:1009900003225A713B1C01221A713B1C064A1A6041
:1009A000064A3B1C101C191C00F058F8BD4602B04A
:1009B00080BDC04600080048FF1F0000000400483A
:1009C00080B584B002AFFFF7C3FFFFF715FEFFF756
:1009D0007BFFFB1D3C221A700023009301200121A4
:1009E000F0228023FFF722FFFFF736FEFA235B0099
:1009F000181CFFF75FFD0123009301200121F02265
:100A00008023FFF713FFFFF727FEFA235B00181C74
:100A1000FFF750FDE0E7C046002103E0094B5B58BB
:100A2000435004310848094B42189A42F6D3084A09
:100A300002E0002313600432064B9A42F9D3FFF719
:100A4000BFFF7047300C00080000002000000020AD
:100A500000000020000F0020FEE7000080B586B0F7
:100A600000AF7860396000237B6100233B61002385
:100A7000FB6000237B6185E07B690122101C9840AC
:100A8000031C3B613B681B683A691340FB60FA68D2
:100A90003B699A4273D13B681B79012B03D03B68B9
:100AA0001B79022B38D17B689B687A69520003213D
:100AB000081C9040021CD2431A407B689A607B68F5
:100AC0009A683B685B79191C7B695B00081C98403D
:100AD000031C1A437B689A607B689B889BB27A6987
:100AE00092B20121081C9040021C92B2D24392B2F1
:100AF00013409AB27B689A807B689B889AB23B6865
:100B00009B79191C7B699BB2081C9840031C9BB203
:100B100013439AB27B689A807B681B687A6952009B
:100B20000321081C9040021CD2431A407B681A60C3
:100B30007B681A683B681B79191C7B695B00081C81
:100B40009840031C1A437B681A607B68DB687A69EB
:100B500092B252000321081C9040021CD2431A405A
:100B60007B68DA607B68DA683B68DB79191C7B6933
:100B70005B00081C9840031C1A437B68DA607B69A1
:100B800001337B617B690F2B00D875E7BD4606B04A
:100B900080BDC04680B582B000AF7860BB1C1980B4
:100BA0007B1C1A707B1C1B78002B04D0BB1C1A8882
:100BB0007B689A6103E07B68BA1C12881A85BD467F
:100BC00002B080BD80B584B000AF78600023FB60C8
:100BD000084B1B68FB60FB6801229343FB60FA68CB
:100BE0007B681343FB60034BFA681A60BD4604B090
:100BF00080BDC0460020024080B582B000AF021C1C
:100C0000FB1D1A70FB1D1B78002B06D0074B074AF3
:100C1000126810210A431A6005E0044B034A126867
:100C200010218A431A60BD4602B080BD00200240F8
:0400000508000000EF
:00000001FF
