:020000040800F2
:100000000004002011020008190200082102000863
:1000100000000000000000000000000000000000E0
:1000200000000000000000000000000023020008A3
:100030000000000000000000250200082702000860
:1000400029020008290200082902000829020008E4
:1000500029020008290200082902000829020008D4
:1000600029020008290200082902000829020008C4
:1000700029020008290200082902000829020008B4
:1000800029020008590100080000000029020008A8
:100090002902000829020008290200082902000894
:1000A0002902000829020008290200082902000884
:1000B00029020008000000002902000800000000DA
:1000C0002E482F4901602F482D4901602E482C49A8
:1000D00001602E482A4901602D48294901602D48B8
:1000E000274901602C482D4901602D482D490160A8
:1000F00025482349016070472B4821490160016868
:100100002A482B49016028482A4901602A482B497E
:1001100001602B482B4901602B482C490160704736
:1001200001B52B4880472B4880472B482B4901605D
:100130002B482A4901602B482B4901602B482C4948
:1001400001602C482C4901602C482D49016062B6A1
:1001500001BD704730BFFDE72A4801681F480140D4
:1001600004D024480168244A4A40026026480449D1
:1001700001682648224901687047000000000048D5
:1001800000000000080000480C000048000400487F
:10019000080400480C04004800080048000005005E
:1001A0000808004800000F00041002400010024040
:1001B00001000001020028051410024000000A009E
:1001C00018100240001800001C100240100000200F
:1001D000F9000008C1000008001000400100000004
:1001E0000C100040281000400F0000002C100040B0
:1001F000FFFF0000140800480001000000E100E0DB
:1002000000000200100000481010004080E200E0F2
:100210000648804706480047064807490160FEE750
:10022000FEE7FEE7FEE7FEE7FEE70000210100082B
:0C023000550100081408004800020000FE
:0400000508000211DC
:00000001FF
