:020000040800F2
:10000000002000204D0C0008910C0008910C000805
:1000100000000000000000000000000000000000E0
:10002000000000000000000000000000910C00082B
:100030000000000000000000910C0008910C000876
:10004000910C0008910C0008910C0008910C00081C
:10005000910C0008910C0008910C0008910C00080C
:10006000910C0008910C0008910C0008910C0008FC
:10007000910C0008910C0008910C0008910C0008EC
:10008000910C0008910C000800000000910C000881
:10009000910C0008910C0008910C0008910C0008CC
:1000A000910C0008910C0008910C0008910C0008BC
:1000B000910C000800000000910C000800000000F6
:1000C0005FF808F180B500AF1A4B1A4A1268012197
:1000D0000A431A60174B174A5168174A0A405A6078
:1000E000144B144A1168154A0A401A60114B114A00
:1000F0001168134A0A401A600E4B0E4A5168114AA1
:100100000A405A600B4B0B4AD26A0F218A43DA62CB
:10011000084B084A116B0C4A0A401A63054B054A02
:10012000526B01218A435A63024B00229A60BD46FA
:1001300080BDC046001002400CB8FFF8FFFFF6FE7D
:10014000FFFFFBFFFFFFC0FFACFEFFFF80B582B0EB
:1001500000AF021CFB1D1A70044B00221A70034BE7
:10016000FA1D12781A70BD4602B080BD021002401E
:1001700090B583B000AF00233B60FB1D00221A70D6
:10018000BB1D00221A70BC1D112000F069F9031C70
:1001900023703B6801333B603A68A023DB009A423E
:1001A00003D0BB1D1B78002BEDD0112000F058F9B7
:1001B000031C002B03D0FB1D01221A7002E0FB1D63
:1001C00000221A70FB1D1B78181CBD4603B090BDA1
:1001D00080B582B000AF021CFB1D1A70FB1D1B789E
:1001E000002B06D0074B074A126801210A431A6008
:1001F00005E0044B034A126801218A431A60BD4698
:1002000002B080BD0010024080B582B000AF7860BF
:100210003960084B074A5168074A0A405A60054B43
:10022000044A516878683A6802430A435A60BD46F6
:1002300002B080BD00100240FFFFC2FF80B582B057
:1002400000AF021CFB1D1A70FB1D1B78002B07D092
:10025000084B084A1268802149040A431A6005E0E5
:10026000044B044A1168044A0A401A60BD4602B0B1
:1002700080BDC04600100240FFFFFFFE80B584B085
:1002800000AF78600023FB60084BDB6AFB60FB6813
:100290000F229343FB60FA687B681343FB60034BB8
:1002A000FA68DA62BD4604B080BDC0460010024064
:1002B00080B584B000AF78600023FB60084B5B68BA
:1002C000FB60FB6803229343FB60FA687B6813437F
:1002D000FB60034BFA685A60BD4604B080BDC0465F
:1002E0000010024080B500AF044B5B68DAB20C230B
:1002F0001340DBB2181CBD4680BDC0460010024052
:1003000080B584B000AF78600023FB60084B5B6869
:10031000FB60FB68F0229343FB60FA687B68134341
:10032000FB60034BFA685A60BD4604B080BDC0460E
:100330000010024080B584B000AF78600023FB60FD
:10034000084B5B68FB60FA68074B1340FB60FA6878
:100350007B681343FB60034BFA685A60BD4604B0E8
:1003600080BDC04600100240FFF8FFFF80B582B09C
:1003700000AF78600E4B0E4A51680E4A0A405A6030
:100380000B4B0B4A51687A681204120C0A435A60EC
:10039000074B074A116B084A0A401A63044B044A88
:1003A000116B7A68120C0A431A63BD4602B080BD15
:1003B00000100240FFBFFFFFFFFEFFFF80B582B0CD
:1003C00000AF7860074B074A126B10218A431A630B
:1003D000044B044A116B7A680A431A63BD4602B0A3
:1003E00080BDC0460010024080B582B000AF78608A
:1003F0000A1CFB1C1A70FB1C1B78002B06D0084B38
:10040000074A51697A680A435A6106E0044B044A74
:1004100052697968C9430A405A61BD4602B080BD3D
:100420000010024080B582B000AF78600A1CFB1C4F
:100430001A70FB1C1B78002B06D0084B074AD169A9
:100440007A680A43DA6106E0044B044AD2697968A3
:10045000C9430A40DA61BD4602B080BD00100240C7
:1004600080B586B000AF021CFB1D1A700023FB6034
:1004700000237B613B1C133300221A70FB1D1B7889
:100480005B09DBB2FB60FB68002B03D1174B1B68D9
:100490007B6110E0FB68012B03D1144B1B6A7B616D
:1004A00009E0FB68022B03D1104B5B6A7B6102E021
:1004B0000E4B5B6B7B61FB1D1A781F231340FB60A7
:1004C000FB687A69DA400123134004D03B1C1333E4
:1004D00001221A7003E03B1C133300221A703B1CEC
:1004E00013331B78181CBD4606B080BD00100240B7
:1004F00080B582B000AF0A1CFB1D011C19703B1DAA
:100500001A80FB1D1B78181C00F008F83B1D1B8887
:10051000181C00F02BF8BD4602B080BD80B582B03B
:1005200000AF021CFB1D1A700E4B10221A850D4BDA
:1005300001221A850C4BFA1D127892B29A82094B4D
:1005400002221A85012000F03FFA064B02229A612E
:10055000044B01229A61034B10229A61BD4602B0FE
:1005600080BDC046000400480008004880B582B045
:1005700000AF021CBB1D1A800C4B10221A850B4BBE
:1005800001229A610A4BBA1D12889A82074B0222F5
:100590001A85012000F018FA044B02229A61034BDD
:1005A00010229A61BD4602B080BDC04600040048DA
:1005B0000008004890B583B000AF041C081C111C53
:1005C0001A1CFB1D1C703B1D1880BB1D1970BB1C29
:1005D0001A804E20FFF7A2FFFB1D1B789BB2013B48
:1005E0009BB2181CFFF7C2FF4F20FFF797FF3B1D80
:1005F0001B88013B9BB2181CFFF7B8FF4420FFF794
:100600008DFFBB1D1A78FB1D1B78D318023B9BB2D4
:100610001B029AB2FB1D1B789BB2D3189BB2013B05
:100620009BB2181CFFF7A2FF4520FFF777FF3B1D89
:100630001B88013B9BB2181CFFF798FF4620FFF771
:100640006DFFBA1C3B1D12881B88D3189BB2023B5E
:100650009BB2181CFFF78AFF2220FFF75FFF104BA9
:1006600010221A850F4B181C0F4B191C02231C1C3F
:100670003B1C18331B881D1C0C4B1E1CBB1D1B7800
:10068000BA1C128853431B1C356004600C60013B8C
:10069000FAD1034B10229A61BD4603B090BDC0460B
:1006A00000040048280400481804004814080048C2
:1006B00080B582B002AF324B10229A61304B0822D3
:1006C0009A6107202121FFF713FF00200121FFF786
:1006D0000FFF07202321FFF70BFF10200021FFF75A
:1006E00007FF642000F070F9264B0720191CFFF764
:1006F000FFFE254B1120191CFFF7FAFEC023DB007B
:100700000220191CFFF7F4FE0C200721FFF7F0FE72
:100710000D200F21FFF7ECFE88239B010E20191CF2
:10072000FFF7E6FE1E209F21FFF7E2FE174B012098
:10073000191CFFF7DDFE80231B020B20191CFFF79D
:10074000D7FEE0231B022520191CFFF7D1FE28202D
:100750000621FFF7CDFE0E4B2F20191CFFF7C8FE18
:100760000C4B1220191CFFF7C3FEA0235B000022D4
:10077000009201200121F022FFF71CFFBD4680BD41
:100780000004004833060000706000003F3B00009A
:10079000BE120000EB6C000090B585B000AF041CE9
:1007A000081C111C1A1CFB1D1C703B1D1880BB1D56
:1007B0001970FB1C1A70FB1C1B789BB23A1C0A3286
:1007C000191C4900CB185B0013803B1C20331B789D
:1007D0009AB23B1C0833D2001A804E20FFF79EFECF
:1007E000FB1D1B789BB2013B9BB2181CFFF7BEFEA2
:1007F0004F20FFF793FE3B1D1B88013B9BB2181C4B
:10080000FFF7B4FE4420FFF789FE3B1C0A331A8829
:10081000FB1D1B78D318023B9BB21B029AB2FB1D37
:100820001B789BB2D3189BB2013B9BB2181CFFF7FD
:100830009DFE4520FFF772FE3B1D1B88013B9BB2CE
:10084000181CFFF793FE4620FFF768FE3A1C08329B
:100850003B1D12881B88D3189BB2023B9BB2181C0D
:10086000FFF784FE2220FFF759FE334B10221A8532
:100870003B1C0C3300221A8050E03B1C0E3300223C
:100880001A803CE0BB1D1A78131C5B009B185B00B0
:100890001C1C3B1C0E331A88FB1C1B78101C191CDB
:1008A00000F022FC031CE318244AD35C1C1C3B1CF4
:1008B0000C331A883B1C20331B78101C191C00F0C9
:1008C00013FC031C221C1A410123134005D01C4BAE
:1008D0003A1C243212889A8204E0194B3A1C2832BE
:1008E00012889A82144B02221A85134B02229A61B3
:1008F0003B1C0E333A1C0E32128801321A803A1C0D
:100900000E323B1C0A3312881B889A42BAD33B1C16
:100910000C333A1C0C32128801321A803A1C0C3209
:100920003B1C083312881B889A42A6D3024B102224
:100930009A61BD4605B090BD00040048AC110008A6
:100940000008004890B589B004AF3A601A1CFB1D3E
:1009500018703B1D1980BB1D1A703B1C0E33FA1D0D
:1009600012781A8029E03B1C0E331B88D8B23B68F2
:100970001A783B6801333B603B1D1988BB1D1B780F
:100980003C1C2034247800943C1C2434248801949A
:100990003C1C283424880294FFF7FEFEBB1D1B7804
:1009A0009BB21A1C5200D3185B0099B23B1C0E3349
:1009B0003A1C0E3212888A181A803B681B78002B6A
:1009C000D1D1BD4605B090BD80B582B000AF786092
:1009D00002E07B68013B7B607B68002BF9D1BD4660
:1009E00002B080BD80B500AF012000F061FB0120A6
:1009F00000F044FBFFF766FB0120FFF7A7FBFFF7C2
:100A0000B7FB031C012B2DD10020FFF779FC002040
:100A1000FFF790FC144B181CFFF7A8FC1020FFF701
:100A2000CDFC0020FFF72AFC80235A0280235B03C1
:100A3000101C191CFFF7E8FB0120FFF7FFFBC04665
:100A40001920FFF70DFD031C002BF9D00220FFF742
:100A50002FFCC046FFF746FC031C082BFAD10020F0
:100A6000FFF7B6FBBD4680BD0040000180B582B0F7
:100A700000AF80231B03181C0121FFF7B5FC3B1CB2
:100A800003225A713B1C01221A713B1C0F4A1A6047
:100A90000F4A3B1C101C191C00F09EF98023DB023E
:100AA000181C0121FFF7A0FC3B1C03225A713B1CC0
:100AB00001221A713B1C074A1A60074A3B1C101C92
:100AC000191C00F089F9BD4602B080BDFFFF00008F
:100AD000000800481FB000000004004880B586B040
:100AE00000AF8023DB01181C0121FFF79BFC3B1D9D
:100AF00000229A813B1D01221A813B1D0222DA80CD
:100B00003B1DE022D2009A803B1D00221A803B1D33
:100B10000022DA813B1D822252005A803B1D802236
:100B200092005A81064A3B1D101C191C00F0B2F8B5
:100B3000034B181C012100F02FF9BD4606B080BD03
:100B40000038004080B586B004AFFFF74BFFFFF7D9
:100B50008DFFFFF7C3FFFFF7ABFDA0235B00002273
:100B6000009201200121F022FFF724FDBB1D00228D
:100B70001A8017E0BB1D1B88DB009BB201339AB2C1
:100B8000304B012100911F2101912F490291012039
:100B9000111C1A1C0123FFF7D5FEBB1DBA1D1288BC
:100BA00001321A80BB1D1B88272BE3D901233B6030
:100BB000A0235B00244A009201200121F022FFF7CC
:100BC000F9FC3B6801333B60BB1D01221A8013E036
:100BD0003B689BB2BA1D128853439AB2BB1D1B8857
:100BE00000920120191CF0220123FFF7E3FCBB1D3A
:100BF000BA1D128801321A80BB1D1A88A0235B001F
:100C00009A42E5D9BB1D01221A8015E0BB1D1B8845
:100C1000DAB23B689BB2B91D09884B4399B2A02355
:100C20005B000091101C01210122FFF7C3FCBB1DDA
:100C3000BA1D128801321A80BB1D1B88F02BE5D922
:100C4000BFE7C046B0170008E0FF0000002103E046
:100C50000A4B5B584350043109480A4B42189A42E8
:100C6000F6D3094A02E0002313600432074B9A428C
:100C7000F9D300F04DF9FFF765FF7047DC17000866
:100C800000000020000000200000002000000020E4
:100C9000FEE7000080B584B000AF786039603B1C8F
:100CA0000E3300221A803B1C0E337A6812881A8099
:100CB0003B1C0E333A1C0E321188C12292010A40AD
:100CC0001A803B681A883B68DB8913439AB23B68F9
:100CD000DB8813439AB23B681B8913439AB23B6883
:100CE0005B8913439AB23B689B89134399B23B1CBF
:100CF0000E333A1C0E3212880A431A807B683A1C63
:100D00000E3212881A803B1C0E337A6892881A8041
:100D10003B1C0E333A1C0E3211881D4A0A401A80C1
:100D20003B6899883B1C0E333A1C0E3212880A43EA
:100D30001A807B683A1C0E3212889A803B681A8AA5
:100D40007B681A823B1C0E337A6812881A803B1C1F
:100D50000E333A1C0E32128804218A431A803B68F3
:100D600059883B1C0E333A1C0E3212880A431A80F3
:100D70007B683A1C0E3212881A807B689B8B9AB271
:100D8000044B13409AB27B689A83BD4604B080BD81
:100D9000FFF0FFFFFFF7FFFF80B582B000AF786084
:100DA0000A1CFB1C1A70FB1C1B78002B08D07B68EC
:100DB0001B889BB2402213439AB27B681A8007E0DB
:100DC0007B681B889BB2402293439AB27B681A804F
:100DD000BD4602B080BDC04680B586B000AF786029
:100DE000396000237B6100233B610023FB6000230B
:100DF0007B6185E07B690122101C9840031C3B61EC
:100E00003B681B683A691340FB60FA683B699A4289
:100E100073D13B681B79012B03D03B681B79022BF4
:100E200038D17B689B687A6952000321081C904086
:100E3000021CD2431A407B689A607B689A683B68C0
:100E40005B79191C7B695B00081C9840031C1A43E2
:100E50007B689A607B689B889BB27A6992B2012119
:100E6000081C9040021C92B2D24392B213409AB234
:100E70007B689A807B689B889AB23B689B79191C37
:100E80007B699BB2081C9840031C9BB213439AB227
:100E90007B689A807B681B687A6952000321081C72
:100EA0009040021CD2431A407B681A607B681A6823
:100EB0003B681B79191C7B695B00081C9840031C6C
:100EC0001A437B681A607B68DB687A6992B25200C9
:100ED0000321081C9040021CD2431A407B68DA6050
:100EE0007B68DA683B68DB79191C7B695B00081C4E
:100EF0009840031C1A437B68DA607B6901337B618D
:100F00007B690F2B00D875E7BD4606B080BDC04693
:100F100080B500AF1B4B1B4A126801210A431A60BF
:100F2000184B184A5168184A0A405A60154B154A1E
:100F30001168164A0A401A60124B124A1168144A84
:100F40000A401A600F4B0F4A5168124A0A405A6011
:100F50000C4B0C4AD26A0F218A43DA62094B094AC8
:100F6000116B0D4A0A401A63064B064A526B012167
:100F70008A435A63034B00229A6000F00FF8BD4683
:100F800080BDC046001002400CB8FFF8FFFFF6FE1F
:100F9000FFFFFBFFFFFFC0FFACFEFFFF80B582B08D
:100FA00000AF00237B6000233B60314B304A126866
:100FB000802149020A431A602D4B1A6880239B0244
:100FC00013403B607B6801337B603B68002B04D19E
:100FD0007A68A023DB009A42EED1254B1A68802361
:100FE0009B02134002D001233B6001E000233B60E1
:100FF0003B68012B38D11F4B11221A601C4B1C4A35
:1010000052685A601A4B1A4A52685A60184B184A6A
:101010005168194A0A405A60154B154A526888218E
:1010200049030A435A60124B114A1268802149044D
:101030000A431A60C0460E4B1A6880239B04134073
:10104000F9D00B4B0A4A526803218A435A60084B75
:10105000074A526802210A435A60C046044B5A6844
:101060000C231340082BF9D1BD4602B080BDC04609
:101070000010024000200240FFFFC0FF80B584B096
:1010800000AF78600023FB60084B1B68FB60FB68C7
:1010900001229343FB60FA687B681343FB60034BB8
:1010A000FA681A60BD4604B080BDC0460020024008
:1010B00080B582B000AF021CFB1D1A70FB1D1B78AF
:1010C000002B06D0074B074A126810210A431A600A
:1010D00005E0044B034A126810218A431A60BD469A
:1010E00002B080BD00200240002941D010B4041C91
:1010F0004C40A44601230022002900D54942002883
:1011000000D5404288422CD301242407A14204D2B6
:10111000814202D209011B01F8E7E400A14204D296
:10112000814202D249005B00F8E7884201D3401AAD
:101130001A434C08A04202D3001B5C0822438C08CF
:10114000A04202D3001B9C082243CC08A04202D339
:10115000001BDC082243002803D01B0901D0090929
:10116000E3E7101C6446002C00D5404210BC7047D9
:10117000002806D003DB0020C043400801E08020A7
:10118000000607B4024802A14018029003BDC04601
:10119000190000000029EBD003B5FFF7A7FF0EBC34
:1011A0004243891A1847C0467047C04600000000F5
:1011B0000000003E4551453E003E6B6F6B3E001CFB
:1011C0003E7C3E1C00183C7E3C180030367F36309A
:1011D00000185C7E5C18000018180000FFFFE7E7AD
:1011E000FFFF003C24243C00FFC3DBDBC3FF0030D7
:1011F000484A360E0006297929060060703F02042D
:1012000000607E0A353F002A1C361C2A00007F3E03
:101210001C0800081C3E7F000014367F36140000B6
:101220005F005F000006097F017F00224D555922B3
:101230000060606060000014B6FFB6140004067F12
:1012400006040010307F30100008083E1C0800081B
:101250001C3E080800784040404000083E083E0818
:1012600000303C3F3C3000030F3F0F030000000004
:1012700000000000065F06000007030007030024CB
:101280007E247E2400242B6A12000063130864630A
:1012900000364956205000000703000000003E4180
:1012A00000000000413E000000083E1C3E0800080F
:1012B000083E08080000E060000000080808080870
:1012C000000060600000002010080402003E414160
:1012D000413E0000427F40000062514949460022E1
:1012E00049494936001814127F10002F49494931E5
:1012F000003C4A494930000171090503003649495B
:10130000493600064949291E00006C6C00000000A7
:10131000EC6C000000081422410000242424242442
:10132000000041221408000201590906003E415DF7
:10133000551E007E1111117E007F49494936003E3D
:1013400041414122007F4141413E007F494949419D
:10135000007F09090901003E4149497A007F0808D8
:10136000087F0000417F410000304040403F007F47
:1013700008142241007F40404040007F0204027F69
:10138000007F0204087F003E4141413E007F090981
:101390000906003E4151215E007F090919660026B9
:1013A000494949320001017F0101003F4040403F6F
:1013B000001F2040201F003F403C403F00631408B6
:1013C00014630007087008070071494543000000D6
:1013D0007F414100000204081020000041417F00CD
:1013E00000040201020480808080808000000307E6
:1013F0000000002054545478007F4444443800389E
:101400004444442800384444447F00385454540829
:1014100000087E0909000018A4A4A47C007F04042D
:1014200078000000007D4000004080847D00007F47
:10143000102844000000007F4000007C041804785D
:10144000007C0404780000384444443800FC4444E0
:1014500044380038444444FC0044784404080008FC
:101460005454542000043E442400003C40207C009E
:10147000001C2040201C003C6030603C006C1010C0
:101480006C00009CA0603C00006454544C000008B8
:101490003E414100000000770000000041413E084D
:1014A000000201020100003C2623263C44114411A5
:1014B0004411AA55AA55AA55BBEEBBEEBBEE0000DF
:1014C00000FF0000080808FF00000A0A0AFF0000E9
:1014D00008FF00FF000008F808F800000A0A0AFEEA
:1014E00000000AFB00FF000000FF00FF00000AFAF6
:1014F00002FE00000A0B080F0000080F080F000092
:101500000A0A0A0F0000080808F800000000000F8F
:1015100008080808080F0808080808F80808000064
:1015200000FF0808080808080808080808FF080855
:10153000000000FF0A0A00FF00FF0808000F080B68
:101540000A0A00FE02FA0A0A0A0B080B0A0A0AFA39
:1015500002FA0A0A00FF00FB0A0A0A0A0A0A0A0A31
:101560000AFB00FB0A0A0A0A0A0B0A0A080F080FFC
:1015700008080A0A0AFA0A0A08F808F80808000F10
:10158000080F08080000000F0A0A000000FE0A0AFF
:1015900000F808F8080808FF08FF0808007E4B4A12
:1015A0004B420A0A0AFF0A0A0808080F0000000056
:1015B00000F80808FFFFFFFFFFFFF0F0F0F0F0F089
:1015C000FFFFFF000000000000FFFFFF0F0F0F0FE5
:1015D0000F0F003E4949412200385454442800016D
:1015E000407E40010000017C41000027484B483FFD
:1015F000009DA2623D00000609090600003855540E
:101600005508000018180000000008000000003015
:10161000403E02027F06187F13132A3E14143E2A0E
:10162000003C3C3C3C00000000000000007E11112A
:10163000117E007F49494931007F49494936007F81
:1016400001010101C07E41417FC0007F49494941FC
:101650000077087F0877224949493600007F20102B
:10166000087F007E2111097E007F0814224100407E
:101670007E01017F007F0204027F007F0808087F4F
:10168000003E4141413E007F0101017F007F090989
:101690000906003E414141220001017F010100276E
:1016A0004848483F000E117F110E00631408146370
:1016B000007F40407FC000070808087F007F407F10
:1016C000407F007F407F40FF03017F484830007F1C
:1016D0004848307F007F4848483000224149493E11
:1016E000007F083E413E00661909097F00205454DE
:1016F0005478003C4A4A4A31007C54545428007CB7
:1017000004040C00C07844447CC00038545454088D
:10171000006C107C106C002844545428007C20106D
:10172000087C007C20120A7C007C10284400403891
:1017300004047C00007C0810087C007C1010107CE5
:10174000003844444438007C0404047C00FC4444D5
:1017500044380038444444280004047C0404009CB9
:10176000A0603C000018247C2418006C10106C0051
:10177000007C40407CC0000C1010107C007C407C41
:10178000407C007C407C40FC0C047C505020007C61
:101790005050207C007C5050502000284454543835
:1017A000007C1038443800483414147C00000000D9
:1017B0005468697320697320746573742073656E4F
:1017C00074656E6365732C20796F75206C6F6F6B19
:0C17D0002074686973203D2900000000AF
:0400000508000000EF
:00000001FF
